:100B5300454E5445522050415353574F524400532E
:100B6300595354454D204C4F434B45440050494E37
:100B730020434F525245435400444F4F52204F504D
:100B8300454E454400444F4F5220434C4F53494E2A
:100B93004720494E00350034003300320031003025
:100BA30000444F4F5220434C4F5345440057524F3C
:100BB3004E472050494E00454E544552204D415317
:080BC300544552204B45590036
:100CCE000614313233343500060E353433323100EA
:030CDE00010D0005
:0F0ACF007F0F120CC07F38120CC07F01120CC0B9
:100ADE00E4F51AF51B7F80120CC07BFF7A0B79535D
:100AEE00120C2B120C8E7FC0120CC07414251BF826
:100AFE00E660171209AA7408251BF8A607120C8EB9
:100B0E00051BE51B70E5051A80E11208008E1A8F91
:100B1E001BC3E50D94037480948040B47F01120CC6
:100B2E00C07F80120CC07BFF7A0B7962120C2B7F78
:100B3E000A7E00120C927F01120CC07F80120CC034
:030B4E00120BCBBC
:020B5100808B97
:090C89007F2A120CE27FE87E03D1
:100C9200E4FDFCC3ED9FEC9E5015E4FBFA0BBB0098
:0F0CA200010AEB640A4A70F50DBD00010C80E4F5
:010CB1002220
:0E0CB2007F0A7E00120C927F01120CC07F8020
:0E0CC0008F90C2B5C2B6D2B7120C8EC2B72248
:0E0CE2008F90D2B5C2B6D2B7120C8EC2B72216
:100C1B007F01120CC07F81120CC07BFF7A0B7970A5
:060C2B008B1E8A1F8920C8
:100C3100E4F521F522AB1EAA1FA920852282852178
:100C410083120C5CFF600D120CE20522E52270E5B7
:0B0C5100052180E17F107E27020C923D
:1009AA00E4FFFEEF4E6003020A42C2A0D2A1D2A225
:1009BA00D2A320B006120C897F312220B106120C74
:1009CA00897F322220B206120C897F3322D2A0C23A
:1009DA00A1D2A2D2A320B006120C897F342220B160
:1009EA0006120C897F352220B206120C897F362224
:1009FA00D2A0D2A1C2A2D2A320B006120C897F37FC
:100A0A002220B106120C897F382220B206120C89E4
:100A1A007F3922D2A0D2A1D2A2C2A320B006120C40
:100A2A00897F2A2220B106120C897F302230B20334
:080A3A000209AD120C897F23B3
:010A42002291
:10080000E514650860030208C3E515650960030285
:1008100008C3E516650A60030208C3E517650B60A7
:10082000030208C3E518650C60030208C3120C8EAE
:10083000120C1B120C8EC2B3D2B47FC1120CC07B3F
:10084000FF7A0B797C120C2B7F64120CB47BFF7A3D
:100850000B7988120C2B120CB27BFF7A0B79981251
:100860000C2B120CB27BFF7A0B799A120C2B120C08
:10087000B27BFF7A0B799C120C2B120CB27BFF7AA5
:100880000B799E120C2B120CB27BFF7A0B79A01203
:100890000C2B120CB27BFF7A0B79A2120C2B120CD0
:1008A000B2C2B3C2B4120CB97BFF7A0B79A4120C9A
:1008B0002B7F0A7E00120C927F01120CC0E4F50D12
:1008C000FEFF22050D120CB97BFF7A0B79B0120CDA
:0D08D0002B120C8E7F01120CC0E4FEFF22E3
:100BCB00E4F51CF51D7F80120CC07BFF7A0B79BA04
:100BDB00120C2B120C8E7FC0120CC07414251DF836
:100BEB00E660171209AA7408251DF8A607120C8EC9
:100BFB00051DE51D70E5051C80E11208DD8E1C8FBF
:0F0C0B001DE51D6401451C6006E51D451C80B1FB
:010C1A0022B7
:1008DD00E50E650860030209A1E50F6509600302D5
:1008ED0009A1E510650A60030209A1E511650B6018
:1008FD00030209A1E512650C60030209A1120C8E19
:10090D00120C1B120C8EC2B3D2B47FC1120CC07B61
:10091D00FF7A0B797C120C2B7F64120CB47BFF7A5F
:10092D000B7988120C2B120CB27BFF7A0B79981273
:10093D000C2B120CB27BFF7A0B799A120C2B120C2A
:10094D00B27BFF7A0B799C120C2B120CB27BFF7AC7
:10095D000B799E120C2B120CB27BFF7A0B79A01225
:10096D000C2B120CB27BFF7A0B79A2120C2B120CF2
:10097D00B2C2B3C2B4120CB97BFF7A0B79A4120CBC
:10098D002B7F0A7E00120C927F01120CC0E4F50D34
:0D099D00FE7F01227F01120CC0E4FEFF224C
:03000000020A43AE
:0C0A4300787FE4F6D8FD758122020A8A53
:100C5C00BB010CE58229F582E5833AF583E022504D
:100C6C0006E92582F8E622BBFE06E92582F8E22297
:0D0C7C00E58229F582E5833AF583E49322B1
:100A4F00020ACFE493A3F8E493A34003F68001F2E4
:100A5F0008DFF48029E493A3F85407240CC8C333A8
:100A6F00C4540F4420C8834004F456800146F6DF77
:100A7F00E4800B0102040810204080900CCEE47E2D
:100A8F00019360BCA3FF543F30E509541FFEE4936C
:100A9F00A360010ECF54C025E060A840B8E493A333
:100AAF00FAE493A3F8E493A3C8C582C8CAC583CA5E
:100ABF00F0A3C8C582C8CAC583CADFE9DEE780BE16
:010CE1000012
:00000001FF
